S0110000426F6F7473747261702E7372656355
S2140000000C94AB0B0C9444120C9475120C94A61220
S2140000100C94D7120C9408130C9439130C946A138E
S2140000200C949B130C94DB0B0C94DB0B0C94DB0BEB
S2140000300C94DB0B0C94E5110C94DB0B0C94DB0B93
S2140000400C94DB0B0C94DB0B0C94DB0B0C94DB0B93
S2140000500C94DB0B0C94DB0B0C94DB0B0C94CC138A
S2140000600C94DB0B0C942F0D0C94650D0C94DB0B91
S2140000700C94DB0B0C94DB0B0C94DB0B0C94DB0B63
S2140000800C94DB0B0C94DB0B0C94DB0B0C94DB0B53
S2140000900C94DA0D0C94100E0C94DB0B0C94BD1A19
S2140000A00C94DB0B0C94DB0B0C94DB0B0C94DB0B33
S2140000B00C94DB0B0C94DB0B0C94DB0B0C94DB0B23
S2140000C00C94DB0B0C94DB0B0C94DB0B0C94DB0B13
S2140000D00C94DB0B0C94DB0B0C94DB0B0C94DB0B03
S2140000E00C94DB0B0C94DB0B0C94DB0B0C94DB0BF3
S2140000F00C94DB0B0C94DB0B0C94DB0B0C94DB0BE3
S2140001000C94DB0B0C94DB0B0C94DB0B0C94DB0BD2
S2140001100C94DB0B0C94DB0B0C94DB0B0C94DB0BC2
S2140001200C94DB0B0C94DB0B0C94DB0B0C94DB0BB2
S2140001300C94DB0B27152C1531153B15B215451500
S2140001404D1555155F156915731580158A15B21569
S21400015094159E15A815D715DB15CB15D1152016A9
S214000160DF15E515EB15F115F715FD150316091640
S21400017020160F1615161B16C31BC61BC61BC61B42
S214000180C61BC61BC61BC61BDD1AC61BC61BC61B4C
S214000190C61BC61BC61BC61BDD1AC61BC61BC61B3C
S2140001A0C61BC61BC61BC61BE51AC61BC61BC61B24
S2140001B0C61BC61BC61BC61B0A1BC61BC61BC61BEE
S2140001C0C61BC61BC61BC61BE51AC61BC61BC61B04
S2140001D0C61BC61BC61BC61B0F1BC61BC61BC61BC9
S2140001E0C61BC61BC61BC61B141BC61BC61BC61BB4
S2140001F0C61BC61BC61BC61B251BC61BC61BC61B93
S214000200C61BC61BC61BC61B4E1BC61BC61BC61B59
S214000210C61BC61BC61BC61B191BC61BC61BC61B7E
S214000220C61BC61BC61BC61B331BC61BC61BC61B54
S214000230C61BC61BC61BC61B501BC61BC61BC61B27
S214000240C61BC61BC61BC61B501BC61BC61BC61B17
S214000250C61BC61BC61BC61B501BC61BC61BC61B07
S214000260C61BC61BC61BC61B501BC61BC61BC61BF7
S214000270C61BC61BC61BC61B591BC61BC61BC61BDE
S214000280C61BC61BC61BC61B8A1BC61BC61BC61B9D
S214000290C61BC61BC61BC61B591BC61BC61BC61BBE
S2140002A0C61BC61BC61BC61B8A1BC61BC61BC61B7D
S2140002B0C61BC61BC61BC61B711BC61BC61BC61B86
S2140002C0C61BC61BC61BC61B8E1BC61BC61BC61B59
S2140002D0C61BC61BC61BC61B8E1BC61BC61BC61B49
S2140002E0C61BC61BC61BC61BA31BC61BC61BC61B24
S2140002F0C61BC61BC61BC61BBD1BC61BC61BC61BFA
S214000300C61BC61BC61BC61BBD1B723A5F3A5F3AAE
S2140003105F3A633A723A5F3A6F3A6F3A6F3A6F3AB9
S2140003206F3A5F3A6F3A6F3A6F3A643B6C3B943B76
S214000330943B943B943BB83C943B943B02000001B6
S21400034008090A000000000000000000000000008D
S2140003500000060304000000000000000001028008
S214000360081020044020010408020408010210803E
S214000370408010204001020408102040800505023D
S214000380050505050504020202020404040404052A
S214000390040402020206060606060606060000001A
S2140003A0002300000029002C002F0032000000006F
S2140003B00000000000000000000000250000002BE8
S2140003C0002E003100340000000000000000000095
S2140003D00000000000240000002A002D003000333A
S2140003E00000000000000000000000868788898C5E
S2140003F08D93858B848AA626267C7C3D3D213D2BCD
S2140004002B2D2D3A3D3E3D3E3E3C3D3C3C2F2F00A5
S214000410A199A2949B8F9C9A9D979F9596989E9043
S21400042034444444400440444444444444444444DF
S21400043008774785777878781111111111878884A5
S21400044042222222222222222222222222244472F3
S214000450422222222222222222222222222787749B
S21400046065787065637465642000756E6578706580
S2140004706374656420006D697373696E672000732A
S2140004807472696E670020756E646572666C6F774D
S21400049000206F766572666C6F77005E43005E4282
S2140004A0005E5500657870006F70003A7862792BB0
S2140004B02D2A2F00656F6600766172006E756D627C
S2140004C06572002900736176656400656570726FF9
S2140004D06D003A3D22003E2000636861720073742E
S2140004E061636B0073746172747570006964007088
S2140004F0726F6D7074000D0A46756E6374696F6E68
S214000500733A006F6F7073006172670066756E6392
S21400051074696F6E000062616E6E6572007072695B
S2140005206E7420226269746C6173682068657265F7
S214000530212076322E302028632920323031332095
S21400054042696C6C20526F79202D74797065204852
S214000550454C502D222C667265652C226279746596
S21400056073206672656522000000009F22382348CB
S21400057023B223C82383211024EE232B240E23A189
S214000580235A236A23B92A3F287A1CFD2D202E7D64
S214000590225D24F0221614D2228C227C2399278EE8
S2140005A0231022B4220228687474703A2F2F6269CE
S2140005B0746C6173682E6E65740D0A536565204C05
S2140005C04943454E534520666F72206C6963656EDD
S2140005D073650D0A50696E733A2064302D32322CE2
S2140005E061302D323220205661726961626C65730B
S2140005F03A20612D7A2C20333220626974206C6F89
S2140006006E6720696E7465676572730D0A4F706554
S2140006107261746F72733A202B202D202A202F20AF
S214000620282029203C203C3D203E203E3D203D3DCC
S21400063020213D203C3C203E3E2021205E202620DE
S2140006407C202B2B202D2D203A3D0D0A436F6D6DFF
S214000650616E64733A20000061726700626F6F74A7
S21400066000656C73650066756E6374696F6E00680E
S214000670656C70006966006C73007065657000706C
S21400068072696E740070730072657475726E0072B3
S2140006906D0072756E0073746F70007377697463A3
S2140006A068007768696C65000061627300617200BB
S2140006B06177006261756400626300626565700060
S2140006C0627200627300627700636F6E73747261A9
S2140006D0696E0064656C6179006472006477006519
S2140006E0720065770066726565006765746B65798C
S2140006F0006765746E756D00696E62006973737469
S21400070072006D6178006D696C6C6973006D696E5E
S214000710006F7574620070696E6D6F64650070724C
S214000720696E74660070756C7365696E0072616ED2
S214000730646F6D007369676E00736E6F6F7A650025
S2140007400043616E6E6F7420757064617465204539
S2140007504550524F4D207374617274696E672070F5
S2140007606173742074686520656E64206F662074FB
S214000770686520454550524F4D0043616E6E6F745C
S21400078020777269746520454550524F4D20667239
S2140007906F6D20736B657463682077697468206E6C
S2140007A06F6E2D7A65726F206F666673657400468D
S2140007B061696C656420746F20616C6C6F63617432
S2140007C065206D656D6F727920666F72207061723C
S2140007D07365642064657363726970746F72000079
S2140007E00000002C01000058020000B00400006069
S2140007F0090000C012000080250000004B00000029
S21400080096000000E1000000C2010064009001E8CC
S21400081003480D0000000000000000000000010179
S21400082000000000000000000005000400000000BA
S2140008300000000002010464617461000000000210
S214000840010100000000000000000401067561724E
S214000850740000000003010369326300000000001A
S2140008600301027370690000000000FF4E430000A1
S21400087000FF565553420013424B504B00FF525355
S2140008805400000C53434B00000B4D49534F000AD5
S2140008904D4F534900095353000000005258300092
S2140008A00001545830000002443200000003443374
S2140008B00000000444340000000544350000000633
S2140008C044360000000744370000000844380000A3
S2140008D000FF3356330000FF474E440000FF5642E9
S2140008E04154000D52583100000E54583100000F8C
S2140008F053434C0000105344410000FF524546004D
S214000900001841300000001941310000001A413241
S2140009100000001B41330000001C41340000001D95
S21400092041350000001E41360000001F4137000020
S2140009300029002C002C0052756E6E696E673A20F6
S2140009406C65644576656E7448616E646C65722885
S21400095000756E6B6E6F776E0032204D622F7300DF
S21400096031204D622F7300353030206B622F7300BC
S214000970323530206B622F7300756E6B6E6F776E3C
S214000980002D31362E352064426D002D31312E3546
S2140009902064426D002D382E352064426D002D36C1
S2140009A02E352064426D002D342E352064426D00B5
S2140009B02D332E352064426D002D322E35206442B4
S2140009C06D002D312E352064426D002D302E3520E1
S2140009D064426D00302E352064426D00312E322088
S2140009E064426D00312E382064426D00322E332072
S2140009F064426D00322E382064426D00332E332060
S214000A0064426D00332E352064426D00556E6B6E69
S214000A106F776E2043617573652052657365740049
S214000A204A544147005761746368646F67004272B6
S214000A306F776E2D6F75740045787465726E616C95
S214000A4000506F7765722D6F6E0029002C002C0009
S214000A5052756E6E696E673A206469676974616C78
S214000A6050696E4576656E7448616E646C65722872
S214000A700029002C002C0052756E6E696E673A20B5
S214000A80616E616C6F6750696E4576656E7448611D
S214000A906E646C65722800290052756E6E696E670A
S214000AA03A2074656D706572617475726545766519
S214000AB06E7448616E646C65722800290052756E0B
S214000AC06E696E673A2062617474657279416C6112
S214000AD0726D5472696767657265644576656E7493
S214000AE048616E646C65722800290052756E6E69E6
S214000AF06E673A20626174746572794368617267E2
S214000B00696E674576656E7448616E646C657228BA
S214000B1000290052756E6E696E673A2062617474C1
S214000B20657279566F6C746167654576656E744854
S214000B30616E646C65722800290052756E6E696E6F
S214000B40673A206261747465727950657263656E87
S214000B50746167654576656E7448616E646C65722F
S214000B60280073657276657220756E7661696C61B1
S214000B70626C65004D65736820616E6E6F756E639E
S214000B8065206661696C65643A200020006D6573B7
S214000B906820616E6E6F756E63696E6720746F2075
S214000BA0005245545259006572726F723A200073B3
S214000BB07563636573730020204D657373616765A5
S214000BC020636F6E6669726D6174696F6E202D208A
S214000BD0002D3E6368756E6B00206C656E200063AA
S214000BE06F6D6D616E643A200069643A2000746F20
S214000BF03A2000696E76616C696420636F6D6D6182
S214000C006E642C20726571756972657320746F2C22
S214000C102069642C20636F6D6D616E64004A534FCB
S214000C204E207061727365206661696C6564006C45
S214000C306F6F6B696E6720666F72207061636B659D
S214000C407420696E3A20003A0052656365697665DD
S214000C506420616E737765722066726F6D205363D1
S214000C606F757420004D554C544943415354206FC2
S214000C706E2077726F6E6720656E64706F696E7433
S214000C80005245545259006572726F723A200073D2
S214000C907563636573730020204D657373616765C4
S214000CA020636F6E6669726D6174696F6E202D20A9
S214000CB0002D3E6368756E6B00206C656E200067C5
S214000CC06F7420726573756C74200072756E6E6931
S214000CD06E6720636F6D6D616E6420007761697466
S214000CE0696E6720666F72206D6F72650063616E55
S214000CF02774207265636569766520636F6D6D6124
S214000D006E64207768696C652073656E64696E67CB
S214000D1020616E7377657200727373693A200020E3
S214000D2020006C71693A20005265636569766564D7
S214000D3020636F6D6D616E64005369676E616C6CE5
S214000D40696E672048513A20004851206F66666CED
S214000D50696E652C2063616E2774207369676E6107
S214000D606C006D756C74696361737420696E200025
S214000D70204669656C642053636F757420726561E4
S214000D80647900204C6561642053636F757420722B
S214000D90656164790029002028726576200020426B
S214000DA075696C6420002000206279746573206683
S214000DB072656500200020285368656C6C206261AF
S214000DC0736564206F6E204269746C617368207668
S214000DD0322E302028632920323031342042696C8C
S214000DE06C20526F79290048656C6C6F2066726FB4
S214000DF06D2050696E6F6363696F210029002800BB
S214000E00756E6B6E6F776E206661696C7572653A8B
S214000E102000506879736963616C206368616E6E48
S214000E20656C20616363657373206661696C7572B7
S214000E30653A20004E6F20726F75746520746F20BF
S214000E4064657374696E6174696F6E3A20004E6FE4
S214000E502061636B6E6F776C656467656D656E7435
S214000E602072656365697665643A20004F75742064
S214000E706F66206D656D6F72793A20004572726FED
S214000E80723A200029002028436F6E6669726D65ED
S214000E9064207769746820636F6E74726F6C20626A
S214000EA07974653A20002D20204D6573736167655F
S214000EB0207375636365737366756C6C79207365F0
S214000EC06E7420746F2053636F757420003A200090
S214000ED053656E74206D65737361676520746F204B
S214000EE053636F7574200020202020207C00202073
S214000EF02020207C202020202000202020202020B1
S214000F007C2020202020002020202020207C202044
S214000F1020202020002020202020207C2020202090
S214000F202020002020202020207C20202020202080
S214000F30002020202020207C202020202020007C34
S214000F40202020202020007C202020204669786554
S214000F5064202020207C20204D756C7469636173AA
S214000F607420207C2020202053636F726520202070
S214000F70207C202020204473744164642020207C40
S214000F80204E657874486F7041646472207C20201F
S214000F90202052616E6B20202020207C20202020E4
S214000FA0204C514920202020207C0072756E6E69EE
S214000FB06E6720616C6C207265706F72747300438C
S214000FC0616E6E6F74206368616E6765206D6F6416
S214000FD065206F6620726573657276656420706939
S214000FE06E00496E76616C69642070696E206E755D
S214000FF06D6265720043616E6E6F74206368616E29
S2140010006765206D6F6465206F6620726573657214
S2140010107665642070696E00496E76616C6964203E
S21400102070696E206E756D6265720043616E6E6FDC
S21400103074206368616E6765206D6F6465206F66F7
S2140010402072657365727665642070696E00496EFD
S21400105076616C69642070696E206E756D6265726B
S2140010600043616E6E6F74206368616E6765206D05
S2140010706F6465206F66207265736572766564209E
S21400108070696E00496E76616C69642070696E20C6
S2140010906E756D62657200496E76616C696420706B
S2140010A0696E206E756D62657200496E76616C6958
S2140010B0642070696E2076616C756500496E766195
S2140010C06C69642070696E206E756D626572004989
S2140010D06E76616C69642070696E206D6F64650061
S2140010E043616E6E6F74206368616E6765206D6F16
S2140010F06465206F6620726573657276656420701D
S214001100696E00496E76616C69642070696E206E47
S214001110756D6265720029002028004572726F7234
S2140011202070617273696E67206E616D65003A208B
S214001130004E6F206261636B7061636B7320666F35
S214001140756E64004661696C656420746F20666520
S21400115074636820454550524F4D00496E76616C69
S2140011606964206261636B7061636B206E756D628B
S2140011706572004661696C656420746F20777269D9
S214001180746520454550524F4D004661696C656454
S21400119020746F2075706461746520454550524F09
S2140011A04D00496E76616C6964206261636B7061A4
S2140011B0636B206E756D626572002062797465736C
S2140011C000454550524F4D20757365643A20002007
S2140011D0627974657300454550524F4D2073697AA5
S2140011E0653A20002E7800454550524F4D206C61E0
S2140011F0796F75742076657273696F6E3A20004257
S21400120061636B7061636B20427573206669726DF3
S214001210776172652076657273696F6E3A20002E6C
S21400122078004261636B7061636B20427573205077
S214001230726F746F636F6C2076657273696F6E3A47
S214001240200053657269616C206E756D6265723A36
S214001250203078002E00426F6172642072657669D5
S21400126073696F6E3A20004D6F64656C206E756D05
S2140012706265723A203078004261636B7061636B1E
S214001280206E616D653A2000496E76616C69642057
S2140012906261636B7061636B206E756D6265720070
S2140012A02C20636F6E74656E74203D20003A2064B7
S2140012B06174612C206C656E677468203D20006B3D
S2140012C0627073002C206D617820737065656420F1
S2140012D03D20003A206932632C2061646472657395
S2140012E073203D2000756E6B6E6F776E0075410043
S2140012F02C206D6178696D756D203D2000756E6BD4
S2140013006E6F776E007541002C207479706963618A
S2140013106C203D2000756E6B6E6F776E0075410019
S2140013202C206D696E696D756D203D2000706F779D
S21400133065723A2070696E203D20003A2067706919
S2140013406F2C2070696E203D2000756E6B6E6F7777
S2140013506E00627073002C207370656564203D20FB
S214001360002C207278203D20003A20756172742C83
S214001370207478203D2000756E6B6E6F776E004D82
S214001380687A002C206D6178207370656564203D56
S21400139020003A207370692C207373203D2000468D
S2140013A061696C656420746F206665746368206F7D
S2140013B072207061727365207265736F75726365F3
S2140013C02064657363726970746F727300496E7619
S2140013D0616C6964206261636B7061636B206E751B
S2140013E06D626572004572726F723A2057692D46BB
S2140013F0692064697265637420636F6D6D616E64E5
S214001400206661696C6564004572726F723A205797
S214001410692D46692064697265637420636F6D6D1B
S214001420616E64206661696C6564004F6B2C207485
S21400143065726D696E6174696E672E20476F6F64A2
S21400144062796520446176652E00466163746F722A
S214001450792072657365742072657175657374653D
S214001460642E2053656E6420636F6D6D616E64201C
S214001470616761696E20746F20636F6E6669726D56
S2140014802E004572726F723A205363616E20666159
S214001490696C6564004572726F723A207361766992
S2140014A06E672053636F75742E776966692E636F57
S2140014B06E66696775726174696F6E2064617461C7
S2140014C0206661696C6564004572726F723A2073BB
S2140014D06176696E672053636F75742E77696669E7
S2140014E02E636F6E66696775726174696F6E2064CD
S2140014F0617461206661696C6564004572726F7222
S2140015003A20736176696E672053636F75742E7721
S2140015106966692E636F6E66696775726174696F56
S2140015206E2064617461206661696C656400457252
S214001530726F723A20496E76616C696420646E73CD
S21400154020736572766572004572726F723A204932
S2140015506E76616C696420676174657761790045B1
S21400156072726F723A20496E76616C6964206E659D
S214001570746D61736B004572726F723A20496E76B5
S214001580616C6964204950206164647265737300FD
S2140015904572726F723A2057692D466920646972E7
S2140015A065637420636F6D6D616E64206661696C3F
S2140015B06564004572726F723A2057692D4669203D
S2140015C070696E6720636F6D6D616E642066616919
S2140015D06C6564004572726F723A2057692D4669D1
S2140015E020444E53206C6F6F6B757020636F6D6D6B
S2140015F0616E64206661696C6564004572726F7224
S2140016003A2057692D4669204E54502074696D65FE
S214001610206C6F6F6B757020636F6D6D616E6420EC
S2140016206661696C6564004572726F723A2057692C
S2140016302D466920736C65657020636F6D6D616EF5
S21400164064206661696C6564004572726F723A2048
S21400165057692D46692077616B65757020636F6DDD
S2140016606D616E64206661696C6564004E756D62BE
S2140016706572206F6620636F6E6E656374696F6E49
S2140016807320746F2048512073696E636520626F03
S2140016906F743A20004E756D626572206F66206327
S2140016A06F6E6E656374696F6E7320746F20415041
S2140016B02073696E636520626F6F743A20006D73E5
S2140016C0004469676974616C2070696E2065766590
S2140016D06E742068616E646C657220746F6F6B2028
S2140016E0006D7300416E616C6F672070696E2065D7
S2140016F076656E742068616E646C657220746F6FB8
S2140017006B200020727373692000206C71692000C2
S2140017102066726F6D200052656365697665642089
S2140017206D657373616765206F662000970D420EC6
S214001730D90E771C5737CE41C5473E4849485448CE
S2140017409662D0642168646C5F75277FB5AA9BADEE
S21400175004AE6C75597F11241FBECFEFD1E8DEBFF3
S214001760CDBF00E00CBF14E2A0E0B2E0E0E8F3E793
S21400177001E00BBF02C007900D92A430B107D9F765
S2140017802BE3A4E0B4E201C01D92A130B207E1F75A
S21400179017E1C2E5D7E100E006C022970109FE0185
S2140017A00BBF0E9496B2CC32D10780E00807A9F79B
S2140017B00FD30C94AFB90C940000FC01818D228DE0
S2140017C090E0805C9F4F821B91098F739927089544
S2140017D0FC01918D828D981731F0828DE80FF11DF6
S2140017E0858D90E008958FEF9FEF0895FC01918D11
S2140017F0828D981761F0828DDF01A80FB11D5D966E
S2140018008C91928D9F5F9F73928F90E008958FEFDB
S2140018109FEF08958EE89DE0892B39F080E090E0F8
S214001820892B19F07BD181110CC089E39EE0892BAE
S21400183069F080E090E0892B49F01BD2811104C04A
S21400184008950E940000F1CF0C9400000895FC015A
S214001850848DDF01A80FB11DA35ABF4F2C91848D34
S21400186090E001968F739927848FA689B7892C9369
S214001870A089B1898C9180648C93938D848D981304
S21400188006C00288F389E02D80818F7D80830895CD
S214001890CF93DF93EC01888D8823C1F0EA89FB891A
S2140018A0808185FD05C0A889B9898C9186FD0EC00A
S2140018B00FB607FCF5CF808185FFF2CFA889B989DE
S2140018C08C9185FFEDCFCE01C2DFE8CFDF91CF91BF
S2140018D00895CF92DF92FF920F931F93CF93DF93DB
S2140018E01F92CDB7DEB76C01DC015B969C915B97CF
S2140018F05C968C915C97981307C05096ED91FC917E
S2140019005197808185FD31C0F601038D10E00F5F91
S2140019101F4F0F731127F02EF601848DF81210C09A
S2140019200FB607FCF9CFD6015096ED91FC91519772
S214001930808185FFF1CFC601698389DF6981ECCF9D
S214001940838DE80FF11DE35AFF4F6083D6015B9647
S2140019500C935B975296ED91FC9153978081806231
S214001960808381E058968C930DC0D6015696ED91F3
S214001970FC91579760835096ED91FC91519780812A
S2140019808064808381E090E00F90DF91CF911F917B
S2140019900F91FF90DF90CF900895BF92CF92DF9285
S2140019A0EF92FF92CF93DF93EC016A017B01B22E98
S2140019B0E889F98982E08083411581EE5807610540
S2140019C07105A1F060E079E08DE390E0A701960153
S2140019D00E9448B221503109410951095695479550
S2140019E037952795211580E1380798F0E889F98919
S2140019F0108260E874E88EE190E0A70196010E94EC
S214001A0048B22150310941095109569547953795F5
S214001A102795EC85FD853083EE85FF852083188E1F
S214001A20EC89FD89B082EA89FB89808180618083A8
S214001A30EA89FB89808188608083EA89FB898081C6
S214001A4080688083EA89FB8980818F7D8083DF912F
S214001A50CF91FF90EF90DF90CF90BF9008951F92A8
S214001A600F920FB60F9211240BB60F922F938F93EF
S214001A709F93EF93FF93E0911424F09115248081B7
S214001A80E0911A24F0911B2482FD12C0908180916F
S214001A901D248F5F8F7320911E24821751F0E091D2
S214001AA01D24F0E0EC5FFB4D958F80931D2401C054
S214001AB08081FF91EF919F918F912F910F900BBE98
S214001AC00F900FBE0F901F9018951F920F920FB693
S214001AD00F9211240BB60F922F933F934F935F9361
S214001AE06F937F938F939F93AF93BF93EF93FF93E1
S214001AF084E094E2ACDEFF91EF91BF91AF919F91AD
S214001B008F917F916F915F914F913F912F910F90A1
S214001B100BBE0F900FBE0F901F90189584E094E2B6
S214001B204CDE21E0892B09F420E0822F08951092E4
S214001B3007241092062488EE93E0A0E0B0E080939D
S214001B40082490930924A0930A24B0930B2484E5D8
S214001B509CE0909305248093042485EC90E0909379
S214001B6011248093102484EC90E0909313248093A7
S214001B70122480EC90E0909315248093142481EC3A
S214001B8090E0909317248093162482EC90E0909334
S214001B9019248093182486EC90E090931B2480935D
S214001BA01A2410921D2410921E2410921F241092A4
S214001BB0202408951F920F920FB60F9211240BB691
S214001BC00F922F938F939F93EF93FF93E091B124FF
S214001BD0F091B2248081E091B724F091B82482FD80
S214001BE012C090818091BA248F5F8F732091BB249E
S214001BF0821751F0E091BA24F0E0EF55FB4D958F37
S214001C008093BA2401C08081FF91EF919F918F91BC
S214001C102F910F900BBE0F900FBE0F901F90189530
S214001C201F920F920FB60F9211240BB60F922F939E
S214001C303F934F935F936F937F938F939F93AF934F
S214001C40BF93EF93FF9381EA94E201DEFF91EF9159
S214001C50BF91AF919F918F917F916F915F914F91BF
S214001C603F912F910F900BBE0F900FBE0F901F90BD
S214001C70189581EA94E2A1DD21E0892B09F420E0A1
S214001C80822F08951092A4241092A32488EE93E045
S214001C90A0E0B0E08093A5249093A624A093A72468
S214001CA0B093A82484E59CE09093A2248093A1247A
S214001CB08DEC90E09093AE248093AD248CEC90E075
S214001CC09093B0248093AF2488EC90E09093B22455
S214001CD08093B12489EC90E09093B4248093B3244D
S214001CE08AEC90E09093B6248093B5248EEC90E036
S214001CF09093B8248093B7241092BA241092BB24F1
S214001D001092BC241092BD2408950895AF92BF92FD
S214001D10CF92DF92EF92FF920F931F93CF93DF93B2
S214001D206C017B01C0E0D0E000E010E0F601EC0FB3
S214001D30FD1F4AE050E06281C701D8D15C016EE227
S214001D40C701C3D08A0D9B1D080F191F2196C330EB
S214001D50D10561F74AE050E0F6016581C701C6D1BA
S214001D60800F911FDF91CF911F910F91FF90EF9001
S214001D70DF90CF90BF90AF90089524E63CE0FC0142
S214001D8031832083128213821482158208950F9362
S214001D90FC0184E69CE091838083628343832483F2
S214001DA005830F910895FC014283538364837583F2
S214001DB0089584E69CE090933F2580933E251092FC
S214001DC040251092412510924225109243250895F1
S214001DD093D50E94D8ADCAE0DCE00E9400AE209702
S214001DE0E1F318DDFACFCF92DF92EF92FF920F93D6
S214001DF01F93CF93DF936C017A01EB01E60EF71E7B
S214001E0000E010E0CE15DF0561F06991D601ED9196
S214001E10FC910190F081E02DC6011995080F191F5D
S214001E20F1CFC801DF91CF911F910F91FF90EF90F6
S214001E30DF90CF9008956115710581F0DB010D905C
S214001E400020E9F7AD0141505109461B570BDC0154
S214001E50ED91FC910280F381E02D199480E090E0F2
S214001E600895EF92FF920F931F93CF93DF938C0109
S214001E70FB01C0E0D0E064917F018FEFE81AF80A1A
S214001E80662361F0D801ED91FC910190F081E02D80
S214001E90C8011995C80FD91FF701EDCFCE01DF9104
S214001EA0CF911F910F91FF90EF900895DC01ED9177
S214001EB0FC91DB0114964D915C9115976D917C9188
S214001EC00280F381E02D1994B6CFDC01ED91FC91F0
S214001ED00190F081E02D19940F931F93CF93DF9319
S214001EE0EC016DE0F2DF8C016AE0CE01EEDF800FE0
S214001EF0911FDF91CF911F910F9108950F931F931C
S214001F00CF93DF93EC01ADDF8C01CE01E5DF800FD0
S214001F10911FDF91CF911F910F9108950F931F93FB
S214001F20CF93DF93EC01C2DF8C01CE01D5DF800FAB
S214001F30911FDF91CF911F910F9108950F931F93DB
S214001F40CF93DF93EC0177DF8C01CE01C5DF800FE6
S214001F50911FDF91CF911F910F9108958F929F92BD
S214001F60AF92BF92CF92DF92EF92FF920F931F93A2
S214001F70CF93DF93CDB7DEB7A1970FB6F894DEBF49
S214001F800FBECDBF7C01C42EE52FCB01D22E19A2E9
S214001F9021E02D1510F02AE0D22E8E010F5D1F4F86
S214001FA08D2C912CA12CB12C6C2D7E2FA50194018B
S214001FB00E9448B28C2DD29E80191124015011091E
S214001FC08A3010F4805D01C0895CF8018083211599
S214001FD031054105510521F0C22EE32FCA01E4CF99
S214001FE0B801C70128DFA1960FB6F894DEBF0FBE72
S214001FF0CDBFDF91CF911F910F91FF90EF90DF90B3
S214002000CF90BF90AF909F908F900895CF92DF9221
S214002010EF92FF920F931F93CF93DF93EC016A0129
S2140020207B012115310579F4E881F9810190F08171
S214002030E02D642FDF91CF911F910F91FF90EF90CD
S214002040DF90CF9019942A303105D9F477FF18C065
S2140020506DE23BDF8C0144275527BA014C195D0918
S2140020606E097F092AE0CE0179DF800F911FDF918C
S214002070CF911F910F91FF90EF90DF90CF90089532
S2140020802AE0B701A601CE01DF91CF911F910F91F3
S214002090FF90EF90DF90CF9061CF9A01AB0166275B
S2140020A057FD6095762FB2CF0F931F93CF93DF9394
S2140020B0EC019A01AB01662757FD6095762FA6DFE7
S2140020C08C01CE0109DF800F911FDF91CF911F9108
S2140020D00F9108952115310541F4DC01ED91FC9135
S2140020E00190F081E02D642F199438CF9A01462F85
S2140020F050E060E070E0EECF0F931F93CF93DF9336
S214002100EC019A01462F50E060E070E0E3DF8C01BE
S214002110CE01E2DE800F911FDF91CF911F910F91CC
S21400212008959A01AB0160E070E0D4CF0F931F933F
S214002130CF93DF93EC019A01AB0160E070E0CADF59
S2140021408C01CE01C9DE800F911FDF91CF911F91C8
S2140021500F9108950F931F93CF93DF93EC01BADF8F
S2140021608C01CE01B9DE800F911FDF91CF911F91B8
S2140021700F9108954F925F926F927F928F929F92E7
S214002180AF92BF92CF92DF92EF92FF920F931F9380
S214002190CF93DF93EC016A017B01B22E9A01AB016B
S2140021A0C701B6010E942AB0882319F066E67CE0D3
S2140021B027C026013701E89477F82FEF3FEF4FE767
S2140021C05FE7C301B2010E942AB081110DC02FEF54
S2140021D03FEF4FE75FE7C301B2010E9474AE1816E7
S2140021E01CF46AE67CE00CC02FEF3FEF4FE75FE49D
S2140021F0C701B6010E94C3AF1816A4F46EE67CE0D1
S214002200CE01DF91CF911F910F91FF90EF90DF905D
S214002210CF90BF90AF909F908F907F906F905F9081
S2140022204F9009CE2FEF3FEF4FE75FECC701B601A7
S2140022300E9474AE87FDE2CF20E030E0A901C7011E
S214002240B6010E9474AE87FF09C06DE2CE013DDE86
S2140022508C01F7FAF094F7F8F09402C000E010E072
S214002260A12C60E070E080E09FE3AB1441F020E03A
S21400227030E040E251E40E9478AEA394F6CF9B0192
S214002280AC01C701B6010E9410AE6B017C010E9432
S214002290E5AE2B013C010E9411AF9B01AC01C701CA
S2140022A0B6010E940FAE6B017C012AE0B301A201C9
S2140022B0CE0154DE080F191FBB2031F062E77CE028
S2140022C0CE01B9DD080F191F7B2C772039F120E0ED
S2140022D030E040E251E4C701B6010E94C7AF6B018F
S2140022E07C010E94E0AE4B01AA2497FCA094BA2C75
S2140022F02AE030E0B501A401CE0188DE080F191FE0
S214002300C501B4010E9413AF9B01AC01C701B60121
S2140023100E940FAE6B017C017A94D7CFC801DF9183
S214002320CF911F910F91FF90EF90DF90CF90BF90CD
S214002330AF909F908F907F906F905F904F90089592
S21400234019CF8230A9F028F4882349F0813051F063
S2140023500895843009F1E8F0853009F10895109267
S2140023606E00089580916F008D7F80936F000895B2
S214002370809170008D7F8093700081E08093B00024
S2140023808091B100887F84608093B1001092B30082
S2140023900895109271000895109272000895109298
S2140023A073000895CF93C82F809108028C1307C03E
S2140023B0ECE3F3E084919FEF9093080201C08FEF67
S2140023C0C0DF60E08C2FCF917AC41F920F920FB6B9
S2140023D00F9211240BB60F922F933F934F935F9358
S2140023E06F937F938F939F93AF93BF93EF93FF93D8
S2140023F08091472590914825A0914925B0914A257E
S214002400892B8A2B8B2B51F190914425E091452501
S214002410F091462580818927808380914725909179
S2140024204825A0914925B0914A25181619061A067E
S2140024301B06BCF48091472590914825A09149251C
S214002440B0914A250197A109B10980934725909339
S2140024504825A0934925B0934A2503C080910802D9
S214002460A1DFFF91EF91BF91AF919F918F917F91E7
S2140024706F915F914F913F912F910F900BBE0F90F0
S2140024800FBE0F901F9018951F920F920FB60F92C7
S21400249011240BB60F922F933F934F935F936F9336
S2140024A07F938F939F93AF93BF93EF93FF93809108
S2140024B04F2590915025892B29F0E0914F25F091DA
S2140024C050251995FF91EF91BF91AF919F918F91F4
S2140024D07F916F915F914F913F912F910F900BBE1F
S2140024E00F900FBE0F901F9018951F920F920FB669
S2140024F00F9211240BB60F922F933F934F935F9337
S2140025006F937F938F939F93AF93BF93EF93FF93B6
S2140025108091512590915225892B29F0E0915125E3
S214002520F09152251995FF91EF91BF91AF919F9130
S2140025308F917F916F915F914F913F912F910F9067
S2140025400BBE0F900FBE0F901F9018951F920F9204
S2140025500FB60F9211240BB60F922F933F934F9303
S2140025605F936F937F938F939F93AF93BF93EF93F6
S214002570FF938091532590915425892B29F0E09163
S2140025805325F09154251995FF91EF91BF91AF9186
S2140025909F918F917F916F915F914F913F912F9176
S2140025A00F900BBE0F900FBE0F901F9018951F92A6
S2140025B00F920FB60F9211240BB60F922F933F93E4
S2140025C04F935F936F937F938F939F93AF93BF9336
S2140025D0EF93FF938091552590915625892B29F0EE
S2140025E0E0915525F09156251995FF91EF91BF91F1
S2140025F0AF919F918F917F916F915F914F913F9196
S2140026002F910F900BBE0F900FBE0F901F90189536
S2140026101F920F920FB60F9211240BB60F922F93A4
S2140026203F934F935F936F937F938F939F93AF9355
S214002630BF93EF93FF9380914B2590914C25892B68
S21400264029F0E0914B25F0914C251995FF91EF91DB
S214002650BF91AF919F918F917F916F915F914F91B5
S2140026603F912F910F900BBE0F900FBE0F901F90B3
S21400267018951F920F920FB60F9211240BB60F9259
S2140026802F933F934F935F936F937F938F939F9375
S214002690AF93BF93EF93FF9380914D2590914E2576
S2140026A0892B29F0E0914D25F0914E251995FF9143
S2140026B0EF91BF91AF919F918F917F916F915F91B5
S2140026C04F913F912F910F900BBE0F900FBE0F9022
S2140026D01F9018951F920F920FB60F9211240BB6EB
S2140026E00F922F933F934F935F936F937F938F93A6
S2140026F09F93AF93BF93EF93FF938091572590914D
S2140027005825892B29F0E0915725F09158251995E1
S214002710FF91EF91BF91AF919F918F917F916F91B4
S2140027205F914F913F912F910F900BBE0F900FBE70
S2140027300F901F9018951F920F920FB60F921124AC
S2140027400BB60F922F933F934F935F936F937F93A6
S2140027508F939F93AF93BF93EF93FF9380915925E9
S21400276090915A25892B29F0E0915925F0915A2508
S2140027701995FF91EF91BF91AF919F918F917F91A6
S2140027806F915F914F913F912F910F900BBE0F90DD
S2140027900FBE0F901F9018951F920F920FB60F92B4
S2140027A011242F933F938F939F93AF93BF93809162
S2140027B0502590915125A0915225B09153253091E6
S2140027C04F2523E0230F2D3720F40196A11DB11DC0
S2140027D005C026E8230F0296A11DB11D20934F25A4
S2140027E08093502590935125A0935225B09353255E
S2140027F08091542590915525A0915625B091572546
S2140028000196A11DB11D8093542590935525A09344
S2140028105625B0935725BF91AF919F918F913F91C9
S2140028202F910F900FBE0F901F9018952FB7F8940A
S2140028306091502570915125809152259091532595
S2140028402FBF08953FB7F894809154259091552551
S214002850A0915625B091572526B5A89B05C02F3FB9
S21400286019F00196A11DB11D3FBFBA2FA92F982FB1
S2140028708827820F911DA11DB11DBC01CD01660FD9
S214002880771F881F991F660F771F881F991F089547
S214002890CF92DF92EF92FF92CF93DF936B017C0192
S2140028A0D1DFEB01C114D104E104F10499F02DDA73
S2140028B0C9DF6C1B7D0B683E734038F081E0C81A98
S2140028C0D108E108F108C851DC4FC114D104E10475
S2140028D0F10469F7DF91CF91FF90EF90DF90CF90F2
S2140028E008950197009739F0880F991F880F991F50
S2140028F002970197F1F70895789484B5826084BDB5
S21400290084B5816084BD85B5826085BD85B58160EE
S21400291085BDEEE6F0E0808181608083E1E8F0E04E
S2140029201082808182608083808181608083E0E87D
S214002930F0E0808181608083E1EBF0E0808184605C
S2140029408083E0EBF0E0808181608083E1E9F0E065
S214002950808182608083808181608083E0E9F0E00E
S214002960808181608083E1EAF0E0808182608083FC
S214002970808181608083E0EAF0E0808181608083EE
S214002980E1E2F1E0808182608083808181608083E3
S214002990E0E2F1E0808181608083EAE7F0E0808118
S2140029A08460808380818260808380818160808370
S2140029B08081806880831092C10008958E3008F070
S2140029C08E50EBE7F0E09081282F2870977F922BAF
S2140029D0908387702091090290E4299F900111242A
S2140029E0282B20937C00EAE7F0E0808180648083D7
S2140029F0808186FDFDCF809178002091790090E05F
S214002A00922B08951F93CF93DF93182FEB0161E06D
S214002A1018D1209721F460E0812F51D1ADC0CF3F6F
S214002A20D10521F461E0812F4AD1A6C0412F50E0A4
S214002A30FA01E35CFC4F449150E0FA013197E13132
S214002A40F10508F08FC0E656FF4F0C9486B284B5A9
S214002A50806884BDC7BD90C084B5806284BDC8BD93
S214002A608BC0E0E8F0E0808180688083D0938900A6
S214002A70C093880081C0E0E8F0E0808180628083B7
S214002A80D0938B00C0938A0077C0E0EBF0E08081A3
S214002A9080688083C093B3006FC0E0EBF0E0808175
S214002AA080628083C093B40067C0E0E9F0E0808174
S214002AB080688083D0939900C09398005DC0E0E959
S214002AC0F0E0808180628083D0939B00C0939A0060
S214002AD053C0E0E9F0E0808188608083D0939D0059
S214002AE0C0939C0049C0E0EAF0E080818068808363
S214002AF080818F7B8083D093A900C093A8003CC0C0
S214002B00E0EAF0E0808180628083D093AB00C093DF
S214002B10AA0032C0E0EAF0E0808188608083D0932B
S214002B20AD00C093AC0028C0E0E2F1E08081806890
S214002B308083D0932901C09328011EC0E0E2F1E013
S214002B40808180628083D0932B01C0932A0114C0B9
S214002B50E0E2F1E0808188608083D0932D01C0930D
S214002B602C010AC0C038D10524F460E0812FA7D01C
S214002B7003C061E0812FA3D0DF91CF911F9108950C
S214002B8090E0FC013197E131F10508F059C0E555B8
S214002B90FF4F0C9486B2E0E8F0E080818F77808368
S214002BA00895E0E8F0E080818F7D8083089584B505
S214002BB08F7784BD089584B58F7D84BD0895E0EB3E
S214002BC0F0E080818F7780830895E0EBF0E08081ED
S214002BD08F7D80830895E0E9F0E080818F778083A1
S214002BE00895E0E9F0E080818F7D80830895E0E934
S214002BF0F0E08081877F80830895E0EAF0E08081BE
S214002C008F7780830895E0EAF0E080818F7D80836F
S214002C100895E0EAF0E08081877F80830895E0E20F
S214002C20F1E080818F7780830895E0E2F1E0808193
S214002C308F7D80830895E0E2F1E08081877F808346
S214002C400895CF93DF9390E0FC01E35AFC4F249164
S214002C50FC01E358FC4F8491882371F190E0880FC3
S214002C60991FFC01EF52FC4FA591B49189549C4FDB
S214002C70FC01C591D49161110BC08FB7F8949C915B
S214002C80209592239C93E8812E2328838FBF14C01F
S214002C90623061F48FB7F8943C91922F909593230D
S214002CA09C93E8812E2B28838FBF06C08FB7F8949D
S214002CB0EC912E2B2C938FBFDF91CF9108951F930D
S214002CC0CF93DF93C62F282F30E0F901E35CFC4F4B
S214002CD08491F901E35AFC4F1491F901E358FC4F33
S214002CE0D491DD23C1F081114BDF2D2F30E0F901A7
S214002CF0EE0FFF1FE954FC4FA591B4918FB7F894DF
S214002D00C11105C0EC9110951E231C9303C0EC91D5
S214002D101E2B1C938FBFDF91CF911F910895CF93E9
S214002D20DF93282F30E0F901E35CFC4F8491F90132
S214002D30E35AFC4FD491F901E358FC4FC491CC23DD
S214002D4091F081111DDF2C2F30E0F901EE0FFF1FEF
S214002D50E356FC4FA591B491EC91DE2381E090E020
S214002D6021F480E002C080E090E0DF91CF910895EA
S214002D70AF92BF92CF92DF92EF92FF920F931F9384
S214002D80CF93DF9390E0FC01E35AFC4FB490FC0134
S214002D90E358FC4FC491611102C0A12C01C0AB2CBA
S214002DA089019A013F70D0E0CC0FDD1FC356DC4F7F
S214002DB080E090E0DC010EC0AC01BD014F5F5F4FCC
S214002DC06F4F7F4F80179107A207B30709F47CC0A7
S214002DD0DB01CA01FE0145915491FA0140814B2165
S214002DE0A41651F30EC0AC01BD014F5F5F4F6F4F8D
S214002DF07F4F80179107A207B30709F469C0DB016C
S214002E00CA01FE0145915491FA0140814B21A4125A
S214002E10EACFFE0145915491FA0140814B21A4125C
S214002E2024C080179107A207B30709F455C0C12C28
S214002E30D12C76010CC0AC01BD014C0D5D1D6E1D84
S214002E407F1D041715072607370709F449C0FFEF4B
S214002E50CF1ADF0AEF0AFF0AFE0145915491FA01E4
S214002E6040814B21A41639F303C0C12CD12C760126
S214002E70D701C601880F991FAA1FBB1F880F991F6D
S214002E80AA1FBB1FAC01BD01440F551F661F771F4D
S214002E90440F551F661F771F840F951FA61FB71F69
S214002EA0C80ED91EEA1EFB1EF0E1CF0ED11CE11C97
S214002EB0F11CC701B601689413F896958795779527
S214002EC067951694D1F70FC060E070E0CB010BC099
S214002ED060E070E0CB0107C060E070E0CB0103C0AB
S214002EE060E070E0CB01DF91CF911F910F91FF90D2
S214002EF0EF90DF90CF90BF90AF900895FC01808157
S214002F0091810C94C6B0CF93DF93EC0188819981B0
S214002F10009711F00E94C6B0198218821D821C828A
S214002F201B821A82DF91CF9108950F931F93CF9340
S214002F30DF93EC018B016F5F7F4F888199810E9440
S214002F4055B1009731F0998388831B830A8381E00B
S214002F5001C080E0DF91CF911F910F910895CF932C
S214002F60DF93EC0188819981892B29F08A819B81E6
S214002F708617970758F4CE01D8DF882341F08C8156
S214002F809D81892B19F4E881F981108281E0DF9117
S214002F90CF910895EF92FF920F931F93CF93DF93F5
S214002FA0EC017B018A01BA01DADF811103C0CE0190
S214002FB0AADF07C01D830C83B701888199810E9410
S214002FC077B5CE01DF91CF911F910F91FF90EF90D3
S214002FD00895FC01118210821382128215821482D7
S214002FE06115710551F0FB0101900020E9F7AF0172
S214002FF041505109461B570BCDCF0895EF92FF92D3
S2140030000F931F93CF93DF93EC017B018A01BA01E4
S214003010A6DF811103C0CE0176DF07C01D830C83B7
S214003020B701888199810E940BB5CE01DF91CF91BF
S2140030301F910F91FF90EF900895CF93DF93EC01CF
S214003040FB018617970751F0608171816115710544
S21400305021F0448155819EDF01C055DFCE01DF910E
S214003060CF910895FC01118210821382128215827C
S2140030701482E3CFCF93DF93EC016115710559F00D
S214003080FB0101900020E9F7AF0141505109461BB2
S214003090570B80DF01C037DFCE01DF91CF91089557
S2140030A00F931F93CF93DF93CDB7DEB729970FB655
S2140030B0F894DEBF0FBECDBF8C01862FF8011182BB
S2140030C01082138212821582148250E0BE016F5F56
S2140030D07F4F90E00E94FAB5BE016F5F7F4FC80138
S2140030E0C9DF29960FB6F894DEBF0FBECDBFDF91BD
S2140030F0CF911F910F9108950F931F93CF93DF9356
S214003100CDB7DEB762970FB6F894DEBF0FBECDBF61
S2140031108C01CB01F8011182108213821282158273
S214003120148250E0BE016F5F7F4F0E949BB5BE01C8
S2140031306F5F7F4FC8019EDF62960FB6F894DEBFC2
S2140031400FBECDBFDF91CF911F910F9108950F93C2
S2140031501F93CF93DF93CDB7DEB761970FB6F89482
S214003160DEBF0FBECDBF8C01CB01F80111821082ED
S214003170138212821582148250E0BE016F5F7F4F69
S2140031800E94FAB5BE016F5F7F4FC80173DF61967C
S2140031900FB6F894DEBF0FBECDBFDF91CF911F9163
S2140031A00F9108950F931F93CF93DF93CDB7DEB79C
S2140031B0A2970FB6F894DEBF0FBECDBF8C01CB0131
S2140031C0BA01F801118210821382128215821482CB
S2140031D030E0AE014F5F5F4F0E94AFB5BE016F5F3C
S2140031E07F4FC80147DFA2960FB6F894DEBF0FBE2A
S2140031F0CDBFDF91CF911F910F9108950F931F932D
S214003200CF93DF93CDB7DEB7A1970FB6F894DEBFA6
S2140032100FBECDBF8C01CB01BA01F801118210821E
S214003220138212821582148230E0AE014F5F5F4F28
S2140032300E94CFB5BE016F5F7F4FC8011BDFA1960E
S2140032400FB6F894DEBF0FBECDBFDF91CF911F91B2
S2140032500F9108950F931F93CF93DF931F921F92A2
S214003260CDB7DEB78C016115710559F0CB016983C6
S2140032707A830E9412B5AC0169817A81C801BEDEEC
S21400328001C041DEC8010F900F90DF91CF911F91D2
S2140032900F910895FC01118210821382128215820A
S2140032A01482D8CFEF92FF920F931F93CF93DF93A2
S2140032B0EC017B010C811D816115710511F480E024
S2140032C015C04115510589F0040F151FB80147DEDA
S2140032D08823A9F3288139818C819D81B701820FCB
S2140032E0931F0E9477B51D830C8381E0DF91CF91F9
S2140032F01F910F91FF90EF9008956115710551F0A1
S214003300FB0101900020E9F7AF0141505109461B2F
S214003310570BC8CF80E00895CF93DF931F921F927C
S214003320CDB7DEB769831A8241E050E0BE016F5F19
S2140033307F4FB8DF0F900F90DF91CF910895CF9316
S214003340DF93EC01FB014481558160817181AADF26
S214003350811102C0CE01D7DDCE01DF91CF91089555
S214003360CF93DF93EC016115710561F0FB010190CD
S2140033700020E9F7AF0141505109461B570B92DF79
S214003380811102C0CE01BFDDCE01DF91CF9108953D
S214003390FC01848195816817790720F480819181EA
S2140033A0009729F41092582588E595E20895860F2F
S2140033B0971F08950F931F93CF93DF93EB0141154B
S2140033C05105E9F02097D9F0FC0164817581261734
S2140033D03707A0F4621B730B8A01015011096017AE
S2140033E0710708F48B01FC0160817181620F731F05
S2140033F0A801CE010E948CB5C00FD11F1882DF91A4
S214003400CF911F910F910895CF93DF93FC01848194
S21400341095814817590768F4C081D18170E0CE01C4
S214003420840F951F0E9463B5009719F08C1B9D0BA7
S21400343002C08FEF9FEFDF91CF91089540E050E0FC
S214003440E3CFCF93DF93EC019B01BA014C815D8102
S2140034502417350718F56115710501F1C901860FA6
S214003460971F4817590718F4BA01621B730B888117
S2140034709981461B570B5D834C83421B530B620F8F
S214003480731F680F791F820F931F0E948CB5E88107
S214003490F9818C819D81E80FF91F1082DF91CF9111
S2140034A0089561E089E00BDC61E089E0CADB8CB559
S2140034B080618CBD8CB580648CBD61E08CE0C1DB26
S2140034C061E08AE0BECB2CB5982F93702C7F922BB0
S2140034D09CBD9DB582FB882780F99E7F982B9DBD5D
S2140034E008951092C62581E08093C4251092C325C6
S2140034F061E080E1E4DB61E08FE0E1DBE9EBF0E056
S21400350080818E7F808380818D7F808388E4809316
S214003510B80085E48093BC0008956132A8F4209139
S214003520C625243099F460937B25662389F0FC0138
S214003530ADE7B5E201966150860F911D21912D935E
S214003540E817F907D9F706C081E0089582E00895E4
S21400355080E0089580E0089585ED8093BC00ECEB54
S214003560F0E0808184FDFDCF1092C625089585EC9D
S2140035708093BC001092C62508951F920F920FB636
S2140035800F9211240BB60F922F933F934F935F9396
S2140035906F937F938F939F93AF93BF93EF93FF9316
S2140035A08091B900887F90E0893C910508F0EEC0D4
S2140035B0FC01E454FF4F0C9486B28091C52580939D
S2140035C0BB0085EC8093BC00E1C090919E25809165
S2140035D09D25981780F4E0919E2581E08E0F8093BC
S2140035E09E25F0E0E156FA4D80818093BB0085EC85
S2140035F08093BC00CBC08091C425882311F0ACDF3B
S214003600C5C081E08093C32584EA8093BC001092F5
S214003610C625BCC080E2809359259EDFB7C080E3F4
S2140036208093592599DFB2C088E3809359259FDFA0
S214003630ADC0E0919E2581E08E0F80939E258091FF
S214003640BB00F0E0E156FA4D808390919E25809174
S2140036509D25981720F485EC8093BC0097C085E8DC
S2140036608093BC0093C0E0919E2581E08E0F8093EE
S2140036709E258091BB00F0E0E156FA4D8083809154
S214003680C425882311F068DF81C081E08093C325BC
S21400369084EA8093BC001092C62578C05DDF76C0B1
S2140036A083E08093C62510925A2585EC8093BC0053
S2140036B06DC080915A25803280F4E0915A2581E0D1
S2140036C08E0F80935A258091BB00F0E0E55AFA4DA4
S2140036D0808385EC8093BC0059C085E88093BC004D
S2140036E055C080915A25803230F4E0915A25F0E09A
S2140036F0E55AFA4D108230DF60915A2570E0E0916D
S214003700BF25F091C0258BE595E2199510925A25B4
S2140037102EDF3CC085E88093BC0038C084E08093F0
S214003720C62510927C2510927B25E091C125F0914C
S214003730C225199580917B25811105C081E0809373
S2140037407B2510927D25E0917C2581E08E0F80936D
S2140037507C25F0E0E358FA4D80818093BB00909181
S2140037607C2580917B25981720F485EC8093BC00FF
S2140037700DC085E88093BC0009C085EC8093BC0032
S2140037801092C62503C010925925E6DEFF91EF91F0
S214003790BF91AF919F918F917F916F915F914F9164
S2140037A03F912F910F900BBE0F900FBE0F901F9062
S2140037B018958091F62590E02091F725821B9109B7
S2140037C008952091F7258091F625281750F4E22FCA
S2140037D0F0E0E850FA4D808190E02F5F2093F725C7
S2140037E008958FEF9FEF0895E091F7258091F625D5
S2140037F0E81730F4F0E0E850FA4D808190E0089544
S2140038008FEF9FEF08950895CF92DF92EF92FF9289
S2140038100F931F93CF93DF937C01CB018A012091F6
S214003820D325222389F0EB016B01C40ED51ECC15DF
S214003830DD0561F06991D701ED91FC910190F08171
S214003840E02DC7011995F3CF642F67DEC801DF911D
S214003850CF911F910F91FF90EF90DF90CF9008953A
S214003860CF93DF931F92CDB7DEB769832091D32520
S2140038702223D1F02091D425203240F021E030E000
S214003880FC013383228380E090E014C08091D5252C
S214003890E82FF0E0EA52FA4D998190838F5F80938B
S2140038A0D5258093D42504C061E0CE01019635DE8F
S2140038B081E090E00F90DF91CF910895FC01138294
S2140038C0128248EE53E060E070E0448355836683DE
S2140038D0778388E79CE09183808308951092F7258C
S2140038E01092F6251092D5251092D425FACD87ECA5
S2140038F095E2E4CFCF93DF9300D01F92CDB7DEB72B
S214003900BE0160507B43882777FD8095982F0F90E7
S2140039100F900F900F90DF91CF91089508951EBAE3
S21400392008958F929F92AF92BF92CF92DF92EF92BE
S214003930FF92CF93DF93EC011092662B1092672BC9
S2140039401092682B1092692B8090C72D912CA12C79
S214003950B12CC090662BD090672BE090682BF0902F
S214003960692BC814D904EA04FB0444F5F601EE0FEB
S214003970FF1FEE0FFF1FE159F44D60817181CE01EC
S2140039800E946EB5892B61F46894C7F8C092662BC6
S214003990D092672BE092682BF092692B81E00FC0E3
S2140039A08FEFC81AD80AE80AF80AC092662BD09297
S2140039B0672BE092682BF092692BCBCF80E0DF91EB
S2140039C0CF91FF90EF90DF90CF90BF90AF909F90F9
S2140039D08F900895CF92DF92EF92FF920F931F93EE
S2140039E0CF93DF937C01C6E1D5E0FE018491882366
S2140039F041F1BE01C7010E9402B56C01CE010E94D2
S214003A0012B58C010F5F1F4F0C0F1D1FCD2889F4B8
S214003A1084EA8EBBC801AA2797FDA095BA2F80938B
S214003A20662B9093672BA093682BB093692B81E04D
S214003A3008C0C8010E9412B5EC012196C00FD11F24
S214003A40D4CFDF91CF911F910F91FF90EF90DF9031
S214003A50CF900895F89428E088E190E00FB6F894A7
S214003A60A895809360000FBE20936000FFCF1F9341
S214003A70CF93DF93182FC0E6D4E0CE01112339F0A0
S214003A800E9412B50196C80FD91F1150F6CFDF91CC
S214003A90CF911F91089587FD0EC0E82FE695F0E0C0
S214003AA0E05EFB4FE49180FF02C08E2F02C08E2F97
S214003AB082958F70089584E008958EB38C3391F0CC
S214003AC08EB3843879F08EB3883861F08EB3893837
S214003AD049F08EB38E3331F09EB381E0953819F0FD
S214003AE080E0089581E0089590ED980F9A3058F0A0
S214003AF09FE9980F963038F09FEB980F81E096304C
S214003B0018F080E0089581E0089590ED980F9A30BF
S214003B1028F090E00E94FAB487550895892F0895FA
S214003B200F931F936150710981E090E002C0880FE7
S214003B30991F6A95E2F78C01222717FD2095322FF0
S214003B40E091442BF091452B408551856285738525
S214003B50042315232623372361E070E080E090E0FD
S214003B60012B022B032B19F460E070E0CB011F91B0
S214003B700F910895DF92EF92FF920F931F93CF93CA
S214003B80DF937C01EB01D42E1092662B1092672BEC
S214003B901092682B1092692BFE018491882341F1C4
S214003BA0BE01C7010E9402B50097F9F0DD2011F0B2
S214003BB097FD1DC00091662B1091672B2091682BF6
S214003BC03091692B0F5F1F4F2F4F3F4F0093662B8F
S214003BD01093672B2093682B3093692BCE010E949D
S214003BE012B50196C80FD91FD7CF81E001C080E07B
S214003BF0DF91CF911F910F91FF90EF90DF90089586
S214003C00FC01818180539281992331F090532AE000
S214003C10829F900D1124892F08950F931F93CF93A1
S214003C20DF93082F8091D926E82FF0E0EE0FFF1FD4
S214003C30E756F94DC081D18160E041D8CE010E949F
S214003C40711419E0115051F0602F61708091D926DF
S214003C5036D8CE010E9471140695F4CF61E08091AB
S214003C60D9262DD8CE01880F991FDF91CF911F91AD
S214003C700F910C9471149091D926911112C0E09175
S214003C809726F0919826309709F01994E09104242D
S214003C90F09105240190F081E02D682F84E094E2F5
S214003CA01994BBCFCF93DF93EC012196FE01319799
S214003CB084918F3F61F0811106C0FE0184918823B4
S214003CC031F080E202C0803681F3D5DFEECFDF919F
S214003CD0CF910895E091C82FF091C92F9FE2E63C5E
S214003CE0F90758F49F012F5F3F4F3093C92F209359
S214003CF0C82F8083C0DF81E0089587E0BCDF80E0C6
S214003D000895CF93DF93B3DEFC018491EF012196F3
S214003D10882319F0B0DFFE01F8CFDF91CF91089528
S214003D20909398268093972608951092982610923E
S214003D3097260895CF93DF93EC018991882311F09D
S214003D409ADFFBCFDF91CF910895EF92FF920F930A
S214003D501F93CF93DF93CDB7DEB7EDB6FEB6FC016B
S214003D60448155814F5F5F4F2DB73EB7241B350BFF
S214003D700FB6F8943EBF0FBE2DBF0DB71EB70F5F30
S214003D801F4F20E030E0B80115DBC801D3DF0FB6C7
S214003D90F894FEBE0FBEEDBEDF91CF911F910F913E
S214003DA0FF90EF900895CF93DF9300D000D0CDB76B
S214003DB0DEB74AE0682FCE01019672D9CE01019691
S214003DC0C4DFCE0101969AD826960FB6F894DEBFC9
S214003DD00FBECDBFDF91CF910895CF93DF9300D074
S214003DE000D0CDB7DEB74AE0BC01CE010196AFD910
S214003DF0CE010196AADFCE01019680D826960FB690
S214003E00F894DEBF0FBECDBFDF91CF910895CF935C
S214003E10DF9300D000D0CDB7DEB7AB01BC012AE0FF
S214003E20CE010196BFD9CE0101968FDFCE01019655
S214003E3065D826960FB6F894DEBF0FBECDBFDF91CD
S214003E40CF910895CF93DF9300D000D0CDB7DEB7E3
S214003E50AB01BC012AE0CE010196D0D9CE01019675
S214003E6074DFCE0101964AD826960FB6F894DEBFC8
S214003E700FBECDBFDF91CF9108958DE0FCDE8AE0C6
S214003E80FACECF93DF9380916E2B8130C1F4C09130
S214003E906A2BD0916B2BC85CDD42C11582E0D80737
S214003EA070F4EBDF2197CE3F8FEFD80719F08DE245
S214003EB0E2DEF8CF8EE5DFDEDF91CF91DECFDF9159
S214003EC0CF910895CF93C0E08091C72DC81768F4AE
S214003ED084E0C89FF0011124E159F44D808191815E
S214003EE029DF80E2C8DECF5FEFCFCF91C6CF09DFF4
S214003EF0C4CF20DFC2CF29DFC0CF6FDFBECF4F9247
S214003F005F926F927F928F929F92AF92BF92CF9264
S214003F10DF92EF92FF920F931F93CF93DF93CDB76D
S214003F20DEB7A4970FB6F894DEBF0FBECDBF28014C
S214003F3039011E2D9E012F5F3F4F690161157105E6
S214003F408105910531F419827E0132E0E30EF11C01
S214003F501FC05901242F30E040E050E029A33AA3C7
S214003F604BA35CA345013FEF831A930A740129A172
S214003F703AA14BA15CA10E9448B2F5016083B90149
S214003F80CA01611571058105910511F05401EACF4A
S214003F904114510461047104F1F0C7018C199D09A4
S214003FA0AA2797FDA095BA2F481A590A6A0A7B0ACB
S214003FB0141415041604170474F4812F5CDEF1E063
S214003FC04F1A510861087108F3CFF70180818A30D3
S214003FD048F4805D50DEF1E0EF1AF108EC14FD04C1
S214003FE0A0F702C0895CF6CFA4960FB6F894DEBFA1
S214003FF00FBECDBFDF91CF911F910F91FF90EF9035
S214004000DF90CF90BF90AF909F908F907F906F90F3
S2140040105F904F9008958F929F92AF92BF92EF92CB
S2140040200F931F93CF93DF9300D01F92CDB7DEB7C9
S2140040304B015C0197FF16C08DE229833A834B83C0
S2140040405C8319DEB094A09490948094811C911C9B
S214004050A11CB11C29813A814B815C812150310918
S21400406041095109E02E89019A014AE0C501B401CF
S21400407046DF0F900F900F900F90DF91CF911F911A
S2140040800F91EF90BF90AF909F908F9008950F93F1
S2140040908AB501DDE82FF0E0EE0FFF1FE65FFD4F6B
S2140040A00190F081E02D19958091472B8823F1F03F
S2140040B084E89CE03FDE6EB370E080E090E000E2D3
S2140040C020E030E0A901A7DF8AE89CE033DE6091BB
S2140040D0662B7091672B8091682B9091692B20E05E
S2140040E030E0A90198DF80E20F91C5CD0F910895C9
S2140040F0EF920F931F9350E3E52E00E010E0980137
S21400410040E1FDDE1F910F91EF90089540916A2BDC
S21400411050916B2B60916C2B70916D2BFC01408342
S21400412051836283738320916E2B24838091472B67
S2140041308823B1F0A2DE8EE89CE0FCDD60916E2B59
S21400414070E080E090E0D4DF80E295DD60916A2B3D
S21400415070916B2B80916C2B90916D2BC9DF8DCE5F
S21400416008958091472B882309F184E99CE0E2DDDD
S21400417060916A2B70916B2B80916C2B90916D2BBC
S214004180B7DF80E278DD8FE79FE0D4DD6EB370E0C6
S21400419080E090E0ADDF80E26EDD85E19CE1CADD87
S2140041A06AB570E080E090E0A3DF67CE0895CF9315
S2140041B0DF931F921F92CDB7DEB71092D9266A837F
S2140041C089835FDE89819DDD6A81662311F0862FF3
S2140041D08EDEC7DF61E070E088E196E20E94A6B45A
S2140041E060E0E5DF48DD80E0FBDF682F80E0DFDFB2
S2140041F0682F81E0DCDF803210F08EE0F9CF089582
S2140042008F929F92AF92BF92CF92DF92EF92FF92E1
S214004210CF93DF936B017C0149015A01862FEBDFB8
S214004220C114D104E104F10459F426E0B501A40157
S21400423084E094E20E94CD0C60E070E0CB0123C0E5
S214004240E601CC0FDD1FC756D94D60E472E48FE05F
S21400425090E0A50194010E9448B2235031093983A9
S214004260288361E08C2D0E94211661E08C2D0E942F
S2140042705F16888199810E947114688179818827E8
S21400428077FD8095982FDF91CF91FF90EF90DF908C
S214004290CF90BF90AF909F908F900895CF93C82FE8
S2140042A0AADFC093D926CC23A1F0EC2FF0E0EE0FC6
S2140042B0FF1FE756F94D20813181232B51F46C2FD7
S2140042C070E080E090E020E835E240E050E0CF91FA
S2140042D097CFCF91089584E18BDF682F82E067DF68
S2140042E0E091442BF091452B90E0A0E0B0E04081B7
S2140042F0518162817381481759076A077B0714F456
S2140043008BE1EBCF08958F929F92AF92BF92CF92A0
S214004310DF92EF92FF920F931F93CF93DF9300D01D
S2140043201F92CDB7DEB783E0DBDF8090442B909002
S214004330452BF4013897C080D180E280F380349713
S2140043406081718182819381A70196010E9439B2B2
S21400435028EE33E040E050E00E9448B259018A015E
S21400436060E271EA87E090E0A70196010E9448B2F9
S2140043702750310941095109F401349761E08081E1
S21400438029833A834B835C830E942116650178015A
S21400439029813A814B815C81890101501109C11440
S2140043A0D104E104F10441F1E091442BF091452B56
S2140043B0349761E0808129833A834B835C830E9433
S2140043C05F1629813A81C9010E947114E091442B3D
S2140043D0F091452B349760E080810E945F16C801FB
S2140043E00E94711481E0C81AD108E108F1085C81C6
S2140043F04B813A812981D3CF60E070E0CB010F90EA
S2140044000F900F900F90DF91CF911F910F91FF901B
S214004410EF90DF90CF90BF90AF909F908F900895D1
S214004420CF92DF92EF92FF920F931F9381E058DFB7
S2140044304091200250912102609122027091230245
S214004440C0901C02D0901D02E0901E02F0901F0249
S214004450DB01CA01E9E1B695A79597958795EA9598
S214004460D1F78C0D9D1DAE1DBF1DF7E0440F551FE7
S214004470661F771FFA95D1F784279527A627B727B3
S2140044808093200290932102A0932202B0932302ED
S214004490BC01CD019F77E091442BF091452B3497DA
S2140044A020813181428153810E946AB29701860140
S2140044B0A9E13695279517950795AA95D1F7015145
S2140044C0114422453142B7E0CC0CDD1CEE1CFF1C2B
S2140044D0BA95D1F70C251D252E253F2500931C02E5
S2140044E010931D0220931E0230931F021F910F91FE
S2140044F0FF90EF90DF90CF90089581E0F1DEE0919D
S214004500442BF091452B34970190F081E02D60818B
S21400451070E080E090E0089582E0E2DE8091442B37
S2140045209091452BFC0134970190F081E02DDC0141
S21400453018978C91808360E070E0CB01089581E04D
S214004540CFDEE091442BF091452B3497608171814A
S2140045508281938197FF07C09095809570956195AD
S2140045607F4F8F4F9F4F089581E0BADEE091442B36
S214004570F091452B3497408151816281738177FD9C
S2140045800CC031E020E080E090E0452B462B472B26
S21400459009F430E0632F722F08956FEF7FEF8FEFEF
S2140045A09FEF08950F931F9382E09ADE8091442B2D
S2140045B09091452BFC013897DC0114970D911D91C5
S2140045C02D913C9160817181828193810617170736
S2140045D02807390714F4C901B8011F910F910895EF
S2140045E00F931F9382E07CDE8091442B9091452BA5
S2140045F0FC013897DC0114970D911D912D913C918B
S21400460060817181828193816017710782079307A9
S21400461014F4C901B8011F910F9108950F931F93C9
S21400462083E05EDE4091442B5091452BFA0134978F
S2140046300081118122813381349780819181A2810A
S214004640B381081719072A073B076CF03497608177
S21400465071818281938106171707280739072CF482
S214004660C901B80102C0BC01CD011F910F91089588
S21400467081E036DEE091442BF091452B3497808123
S2140046800E94DE14BC01882777FD8095982F089538
S21400469082E026DE8091442B9091452BFC013897D2
S2140046A060817181349680810E94021560E070E01E
S2140046B0CB01089581E014DEE091442BF091452B68
S2140046C0349780810E948F16BC01882777FD8095DD
S2140046D0982F089582E004DE8091442B9091452B1C
S2140046E0FC013897DC01149760818C910E945F165C
S2140046F060E070E0CB01089582E0F2DD8091442B0B
S2140047009091452BFC013897DC01149760818C91C1
S2140047100E94211660E070E0CB01089583E0E0DDA2
S2140047208091442B9091452BFC013C972081318150
S214004730428153813496DC01149760818C910C94ED
S214004740B81681E0CDDDE091442BF091452B3497EF
S21400475060817181828193810E94481460E070E0DC
S214004760CB01089582E0BCDD8091442B9091452BCF
S214004770FC013897208131814281538134966081D3
S2140047807181828193813CDD60E070E0CB01089509
S2140047900F931F9382E0A4DD2091442B3091452B8C
S2140047A0F901389761E070E080E090E0008004C096
S2140047B0660F771F881F991F0A94D2F76095709529
S2140047C080959095349600811181228133816023F3
S2140047D07123822393231F910F9108950F931F93A4
S2140047E082E07EDD2091442B3091452BF9013897ED
S2140047F061E070E080E090E0008004C0660F771F04
S214004800881F991F0A94D2F734960081118122815D
S2140048103381602B712B822B932B1F910F91089560
S21400482082E05EDD8091442B9091452BDC0114974D
S214004830FC0138976D917D918D919C91008004C00C
S21400484095958795779567950A94D2F7617077273F
S21400485088279927089583E043DDE091442BF09163
S214004860452B3C9780819181A281B381892B8A2B2D
S2140048708B2B09F0B3CF8CCF0F931F93A091442BB3
S214004880B091452B0D911D912D913C9113970617D4
S21400489017072807390714F48BE11FDD2CEF2603D2
S2140048A0F001279FF00D1124EA0FFB1F6081718134
S2140048B0828193811F910F9108950F931F9361E05A
S2140048C070E080E090E0D8DF6150710981E090E010
S2140048D002C0880F991F6A95E2F78C01222717FD00
S2140048E02095322FE091442BF091452B0484F585DA
S2140048F0E02D408551856285738504231523262384
S214004900372361E070E080E090E0012B022B032B60
S21400491019F460E070E0CB011F910F910895CF92DB
S214004920DF92EF92FF926B017C01FAD8672B682B1F
S214004930692B11F483E059DCC701B601FF90EF90B4
S214004940DF90CF9099CF64E032DCE091462BEF3FCA
S21400495011F489E0F8DFEF5FE093462B84E0E89FF0
S214004960F0011124EC5BF84D6081718182819381A6
S21400497008958091462B8F5FE091442BF091452B54
S2140049809081890F8093462BE0DF709343276093D6
S2140049904227DBDFDADF7093452B6093442B0895C4
S2140049A065E005DC2091C72D263910F089E1F8DF97
S2140049B034E0239FF0011124E159F44D9183808364
S2140049C0738362832F5F2093C72D0895E09142275B
S2140049D0F09143272091462B94E0299F90011124C3
S2140049E02C5B384DE217F30710F083E0D9DF9F0108
S2140049F02F5F3F4F309343272093422780830895AD
S214004A00CF93DF93EC018991882311F0DFDFFBCF92
S214004A10DF91CF91DBCF4091462B24E0429FF001FF
S214004A201124EC5BF84D2091422730914327E21782
S214004A30F30710F489E0B4DF41504093462B6083BF
S214004A4071838283938308958DEF8093462B88E34A
S214004A509BE29093452B8093442B60E070E0CB0163
S214004A60DADFE4E4F7E2F0934327E093422710828C
S214004A700895CF92DF92EF92FF92CF93C82F65DF13
S214004A806B017C0162DF9B01AC01CE3509F4BDC031
S214004A9028F5CB3209F44CC070F4C63209F4B0C025
S214004AA0CA3209F44AC0C53209F0C1C0A70196014E
S214004AB00E946AB2B6C0CF3209F444C040F4CD3288
S214004AC009F0B5C06C197D098E099F09AAC0CC33C0
S214004AD009F43FC0CE3309F447C0A9C0C73809F46B
S214004AE074C098F4C43809F44AC040F4CC3709F0CE
S214004AF09EC06C297D298E299F2993C0C53809F44C
S214004B0049C0C63809F45AC092C0C93809F44CC026
S214004B1008F469C0CA3809F47DC0CB3809F087C0EC
S214004B2004C09595879577956795CA94D2F779C00E
S214004B306C0D7D1D8E1D9F1D74C0C701B6010E94A1
S214004B4039B26FC0A70196010E946AB2CA01B901C4
S214004B5068C061E070E080E090E02C153D054E05F1
S214004B605F050CF45EC048C061E070E080E090E055
S214004B70C216D306E406F5060CF453C03DC061E049
S214004B8070E080E090E0C216D306E406F5060CF06E
S214004B9048C032C061E070E080E090E02C153D0532
S214004BA04E055F05F4F528C061E070E080E090E017
S214004BB02C153D054E055F05A1F51EC06115710556
S214004BC08105910559F061E005C061E0232B242B97
S214004BD0252B29F4CD28CE28CF2809F460E070E0F4
S214004BE080E090E01EC061E070E080E090E02C1570
S214004BF03D054E055F05A9F060E070E0CB0111C0F1
S214004C006C217D218E219F210CC06C257D258E2553
S214004C109F2507C004C0660F771F881F991FCA9478
S214004C20D2F7CF91FF90EF90DF90CF90F4CE8AE04E
S214004C30DFDAEF920F931F9310E3E12E00E010E00F
S214004C40980142E05CD91F910F91EF9008954F9222
S214004C505F926F927F928F929F92BF92CF92DF92D7
S214004C60EF92FF920F931F93CF93DF9300D01F9284
S214004C70CDB7DEB7982EB62E60E070E0CB01FCDD37
S214004C806B017C01692D70E080E090E0C616D706C7
S214004C90E806F9062CF4F1D860E070E0CB0135C1E7
S214004CA0EBDD4B01F4018081882309F428C18532AD
S214004CB009F01AC1D40111968C916401803331F049
S214004CC0BFEFCB1ADB0A80E2E82E05C0E2E0CE0E8C
S214004CD0D11C00E3E02ED6018C918A3229F0F60131
S214004CE020E030E0A90110C0FF24F394FB0C6B2DEC
S214004CF070E080E090E0C0DD9B01AC014601BFEFB4
S214004D008B1A9B0ABF2C1AC04F01C190D12C80E38E
S214004D10C81AD108AAE0CA16D10480F4AAE0B0E006
S214004D200E948CB29B01AC01C601AA2797FDA095F4
S214004D30BA2F280F391F4A1F5B1FE6CFF401808168
S214004D40833609F489C050F4853209F4A6C0823649
S214004D5009F443C0833209F0BDC0A1C0833709F40B
S214004D604DC098F4843609F0B5C06B2D70E080E035
S214004D7090E029833A834B835C837EDD0E2D298168
S214004D803A814B815C8147D9ADC08537A1F0883721
S214004D9009F0A0C06B2D70E080E090E029833A8394
S214004DA04B835C8369DD29813A814B815C81890173
S214004DB09A0140E110C06B2D70E080E090E02983FE
S214004DC03A834B835C8358DD29813A814B815C8131
S214004DD089019A014AE093D885C06B2D70E080E087
S214004DE090E029833A834B835C8346DD29813A81B0
S214004DF04B815C8189019A0142E0EDCF6B2D70E01A
S214004E0080E090E029833A834B835C8335DD6B0139
S214004E107C01FB0101900020E9F73197E61BF70BB8
S214004E2029813A814B815C8129013A014E1A5F0A39
S214004E306108710814141504160417044CF480E273
S214004E400E943B1EF1E04F1A510861087108F2CF2C
S214004E50C6010E949A1E46C0CB2CD12CE12CF12C08
S214004E60C701B60129833A834B835C8305DD862F11
S214004E700E943B1E29813A814B815C812150310979
S214004E8041095109DA01C9010196A11DB11D181683
S214004E9019061A061B0624F325C085E220C06B2DD2
S214004EA070E080E090E029833A834B835C83E4DC07
S214004EB06B017C0129813A814B815C81211531058A
S214004EC04105510521F077278827992799D98C2DF8
S214004ED0E5D908C085E20E943B1ED4018C910E9451
S214004EE03B1EE0CEB39407C08A3019F40E943D1FE3
S214004EF002C00E943B1EBFEF8B1A9B0AD3CE1092B5
S214004F00D9266B2D70E080E090E00F900F900F9008
S214004F100F90DF91CF911F910F91FF90EF90DF9050
S214004F20CF90BF909F908F907F906F905F904F90A4
S214004F30089562E081E08BCE44E150E06FEF70E0D0
S214004F4080E896E20C945CB58A3050F4E82FF0E0E6
S214004F50EE0FFF1FE058F94D8FEF9FEF9183808390
S214004F600895CF92DF92EF92FF92CF93DF936A017C
S214004F707B01E0E8F6E220E030E0419151914F3FBE
S214004F805F4F31F5F901EE0FFF1FE058F94D9183A1
S214004F908083E901CC0FDD1FCC0FDD1FFE01E85A30
S214004FA0F94DC082D182E282F3820E941614C05D5F
S214004FB0D94D6C0D7D1D8E1D9F1D688379838A8358
S214004FC09B83DF91CF91FF90EF90DF90CF90089575
S214004FD02F5F3F4F2A30310581F687E1E1DC2091D3
S214004FE09626222369F0E091942624E0E29FF001C1
S214004FF01124E85AF94D6083718382839383089560
S2140050000C94481481E06CD9E091442BF091452B28
S21400501034976081718182819381E1DF60E070E086
S214005020CB0108958F3F2EE1920710F40C94D5B86B
S21400503008950F931F93CF93DF93FB0101900020F9
S214005040E9F73197E61BF70BE80FF91FEF3FFE4134
S21400505088F4EB018C01061B170BC8018C0F9D1FF3
S2140050606991662311F0DEDFF8CFDF91CF911F91B3
S2140050700F91D8CFDF91CF911F910F91089582E0C5
S2140050802FD98091442B9091452BFC013897DC0159
S214005090149760818D919C91C5DF60E070E0CB0134
S2140050A008958F3F2EE1920710F40C94ADB88FEF61
S2140050B00895CF93DF93EC01CF3F8EE1D80734F409
S2140050C0CE01EFDF8F3F29F42196F6CF8FEF9FEFCB
S2140050D001C0CE01DF91CF910895CF93DF93EC010D
S2140050E0CF3F8EE1D80734F4CE01DBDF8F3F29F0C7
S2140050F02196F6CF8FEF9FEF01C0CE01DF91CF91C3
S21400510008950F931F93CF93DF938C0120E030E038
S214005110C901800F911F81159F41E4F4C901DDDFAD
S214005120EC01CF3F8FEFD807A9F0CE01C2DF9C017C
S2140051308F3F4FEF940711F420E03FE1C9018C1B2D
S2140051409D0B8017910724F3CE01DF91CF911F911D
S2140051500F91089581E124DC0F931F93CF93DF9383
S2140051608C01E8012196CF3F8EE1D8075CF4CE0192
S21400517098DF8F3F51F0811103C0C801029606C028
S2140051808E01EFCF8FEF9EE101C0CE01DF91CF9170
S2140051901F910F910895FF920F931F93CF93DF9364
S2140051A0EB01F990FF2061F08F3F2EE192075CF44F
S2140051B08C010F5F1F4F75DF8F1105C0C801F1CF3F
S2140051C070DF91E0811190E0892FDF91CF911F91E0
S2140051D00F91FF9008950F931F93CF93DF938C0149
S2140051E080E090E066DFEC018F3F2FEF920771F0D2
S2140051F0B801D1DF811108C0CE01AEDFADDF8B3F35
S2140052002EE192077CF302C0CE0102C08FEF9FEF23
S214005210DF91CF911F910F910895CF93DF93EC010B
S214005220DADFAC01662757FD6095762F4093662B34
S2140052305093672B6093682B7093692B77FD03C0A0
S21400524083EA8EBB09C0CE010E94EA1C811104C00D
S21400525080E88EBB80E001C08EB3DF91CF910895C9
S214005260FF920F931F93CF93DF93EC01CF3F8EE116
S214005270D8077CF4CE0115DFF82E8FEFF81649F02C
S2140052808E010F5F1F4F6FEFCE01CCDEE801F110ED
S214005290EDCFCE01DF91CF911F910F91FF90089532
S2140052A09ADF97FD02C0DCDFDBCF08956F927F9216
S2140052B08F929F92AF92BF92CF92DF92EF92FF9221
S2140052C00F931F93CF93DF93CDB7DEB769970FB6D3
S2140052D0F894DEBF0FBECDBF0E9447208EB3803845
S2140052E061F08EB3833A49F08EB3843A31F08EB3D0
S2140052F0853A19F087E10E94F82049E150E068E419
S2140053007BE2CE0101965C010E948CB5C501C8DF28
S2140053100E9447208EB38B3719F08BE70E94F5204A
S214005320C0906A2BD0906B2BE0906C2BF0906D2B7E
S2140053304601EBD3E0916A2BF0916B2B31978F01EE
S2140053408E169F06E0F0F50101900020E9F7CF01E8
S21400535001973C016A187B08C8018C199D09860DC7
S214005360971D0296CEDE4C0197FD1EC0B50161DE8C
S214005370C3010196880D991DC81AD90A05C0319730
S21400538081818D37E1F6DFCFF601E80FF91FE017D0
S214005390F10740F47C012FEFE21AF20A608142DE48
S2140053A0C701F2CF60E03EDE80E10E94771F69967B
S2140053B00FB6F894DEBF0FBECDBFDF91CF911F9121
S2140053C00F91FF90EF90DF90CF90BF90AF909F909F
S2140053D08F907F906F900895CF93DF938F3F2EE14D
S2140053E092075CF4EC0121965CDE9FEF980F9E3FDF
S2140053F020F40E943B1ECE01F1CFDF91CF9108959D
S214005400CF93DF9380E090E054DEEC01CF3F8FEF48
S214005410D807E9F08CE10E94811E80E20E943B1EC4
S214005420CE01DADF80E20E943B1E8BE70E943B1E25
S214005430CE0192DEEC01D0DF8DE70E943B1E8BE3AF
S2140054400E943B1E0E943D1FCE0186DEDDCFDF910F
S214005450CF910895CF92DF92EF92FF920F93CF9362
S214005460DF93C0E8D6E2C12CD12C760188819981E1
S214005470019699F000E220E030E0A901C701B601EC
S2140054800E940B208AE30E943B1E80E20E943B1E85
S21400549088819981A1DF0E943D1F22968FEFC81A4E
S2140054A0D80AE80AF80A2AE0C216D104E104F10490
S2140054B0E9F6DF91CF910F91FF90EF90DF90CF90BC
S2140054C008958F929F92AF92BF92EF920F931F9381
S2140054D0CF93DF93812C912C5401E401C4018F7388
S2140054E09927892B81F40E943D1F60E3E62E04E095
S2140054F010E020E030E040E1C501B4010E947F1FCB
S2140055008AE30E943B1ECE0187709927892B19F4E7
S21400551080E20E943B1ECE0183709927892B19F4E6
S21400552080E20E943B1ECE01BCDD811102C084E2F7
S21400553007C08F3F11F48EE203C0803208F48EE578
S2140055400E943B1E8FEF881A980AA80AB80A811490
S2140055508FE19806A104B10409F0BFCFDF91CF9187
S2140055601F910F91EF90BF90AF909F908F900C94EB
S2140055703D1F81E00E947021E091442BF091452B65
S2140055803497808191818DDD682F70E080E090E017
S2140055900895CF93DF93D0DCC0E0D0E0CE0181DD6C
S2140055A08F3F19F06FEFCE013DDD2196C1158FE1DB
S2140055B0D807A1F7DF91CF9108950F9320916E2B16
S2140055C080916A2B90916B2B223039F0233041F07A
S2140055D0213069F4FC01808104C0FC01849101C083
S2140055E060DD8ABD8091472B8823F9F003C08AE1ED
S2140055F00E94F8208CE30E943B1E8AB5803220F081
S2140056008AB50E943B1E0DC08CE50E943B1E6AB503
S21400561070E080E090E000E220E030E0A9010E9427
S2140056200B208EE30F910C943B1E0F910895CF92A2
S214005630DF92EF92FF921F93CF93DF93182F6A01AA
S2140056407B01E9018091472B8823E9F00E943D1FEA
S21400565086E99CE00E949A1E612F70E080E090E050
S2140056600E94782080E20E943B1EC701B6010E947D
S2140056707820209731F080E20E943B1ECE010E94E7
S2140056809A1E0E943D1F10936E2BC0926A2BD092DA
S2140056906B2BE0926C2BF0926D2B112341F0DF9177
S2140056A0CF911F91FF90EF90DF90CF9086CFDF9144
S2140056B0CF911F91FF90EF90DF90CF900895E091EB
S2140056C0442BF091452B662371F040855185628509
S2140056D07385411551056105710541F0FA0134964F
S2140056E02081318105C02481358102C020E030E070
S2140056F0FC014081518162817381848198CF8091C1
S2140057006A2B90916B2BA0916C2BB0916D2B019610
S214005710A11DB11D80936A2B90936B2BA0936C2BCD
S214005720B0936D2B8091472B882381F08BE50E94E8
S2140057303B1E60916A2B70916B2B80916C2B909125
S2140057406D2B0E9478208DE50E943B1E36CF8AB5D1
S2140057500E944B1D811102C0D2DFF9CF0C94472066
S2140057608EB3863A51F48AB5882341F08AB58A30DA
S21400577029F08AB58D3059F401C008958AB5811193
S21400578002C01EBA0895BBDF0E944720E9CFB7DFEC
S214005790EACFB5DF8AB590E0A0E0B0E08093662B54
S2140057A09093672BA093682BB093692B81E88EBBF0
S2140057B0A6DF8AB5873219F087E20E94F2209FCFD3
S2140057C08AB58EBB9CDF40E087EF93E0FC015491E6
S2140057D05523B1F00296319624913EB335130EC090
S2140057E03AB532130BC0E42FF0E0E551FC4FE491DC
S2140057F0EEBB85DF8EB3863A19F4B2CF4F5FE6CFA5
S21400580008958AB58EBB7BCFCF938AB590E0C097BC
S214005810AA2797FDA095BA2F8093662B9093672BA7
S214005820A093682BB093692BCAE069DF8AB590E035
S2140058300E94FAB48ABDCA30B1F48091662B90916A
S214005840672BA091682BB091692B892B8A2B8B2B09
S21400585051F48AB5883711F4C0E1E7CF8AB58236AD
S21400586011F4C2E0E2CF8AB590E0C0970A9720F51F
S2140058708AB580538ABD8AB58C1720F081E88EBB26
S214005880CF910895EAB52091662B3091672B409111
S214005890682B5091692BAC2FB0E00E948CB26E0F33
S2140058A0711D811D911D6093662B7093672B8093ED
S2140058B0682B9093692BB9CFC03101F78AB5813632
S2140058C0E8F28AB58736D0F62AB58091662B909195
